:020000040000fa
:080000000002040000000000f2
:020000040000fa
:04000800a80200004a
:020000040000fa
:04000c00a802000046
:020000040000fa
:04001000a802000042
:020000040000fa
:04001400a80200003e
:020000040000fa
:04001800a80200003a
:020000040000fa
:04001c00a802000036
:020000040000fa
:04002000a802000032
:020000040000fa
:04002400a80200002e
:020000040000fa
:04002800a80200002a
:020000040000fa
:04002c00a802000026
:020000040000fa
:04003000a802000022
:020000040000fa
:04003400a80200001e
:020000040000fa
:04003800a80200001a
:020000040000fa
:04003c00a802000016
:020000040000fa
:04004000a802000012
:020000040000fa
:04004400a80200000e
:020000040000fa
:04004800a80200000a
:020000040000fa
:04004c00a802000006
:020000040000fa
:04005000a802000002
:020000040000fa
:04005400a8020000fe
:020000040000fa
:04005800a8020000fa
:020000040000fa
:04005c00a8020000f6
:020000040000fa
:04006000a8020000f2
:020000040000fa
:04006400a8020000ee
:020000040000fa
:04006800a8020000ea
:020000040000fa
:04006c00a8020000e6
:020000040000fa
:04007000a8020000e2
:020000040000fa
:04007400a8020000de
:020000040000fa
:04007800a8020000da
:020000040000fa
:04007c00a8020000d6
:020000040000fa
:04008000a8020000d2
:020000040000fa
:04008400a8020000ce
:020000040000fa
:04008800a8020000ca
:020000040000fa
:04008c00a8020000c6
:020000040000fa
:04009000a8020000c2
:020000040000fa
:04009400a8020000be
:020000040000fa
:04009800a8020000ba
:020000040000fa
:04009c00a8020000b6
:020000040000fa
:0400a000a8020000b2
:020000040000fa
:0400a400a8020000ae
:020000040000fa
:0400a800a8020000aa
:020000040000fa
:0400ac00a8020000a6
:020000040000fa
:0400b000a8020000a2
:020000040000fa
:0400b400a80200009e
:020000040000fa
:0400b800a80200009a
:020000040000fa
:0400bc00a802000096
:020000040000fa
:0400c000a802000092
:020000040000fa
:0400c400a80200008e
:020000040000fa
:0400c800a80200008a
:020000040000fa
:0400cc00a802000086
:020000040000fa
:0400d000a802000082
:020000040000fa
:0400d400a80200007e
:020000040000fa
:0400d800a80200007a
:020000040000fa
:0400dc00a802000076
:020000040000fa
:0400e000a802000072
:020000040000fa
:0400e400a80200006e
:020000040000fa
:0400e800a80200006a
:020000040000fa
:0400ec00a802000066
:020000040000fa
:0400f000a802000062
:020000040000fa
:0400f400a80200005e
:020000040000fa
:0400f800a80200005a
:020000040000fa
:0400fc00a802000056
:020000040000fa
:04010000a802000051
:020000040000fa
:04010400a80200004d
:020000040000fa
:04010800a802000049
:020000040000fa
:04010c00a802000045
:020000040000fa
:04011000a802000041
:020000040000fa
:04011400a80200003d
:020000040000fa
:04011800a802000039
:020000040000fa
:04011c00a802000035
:020000040000fa
:04012000a802000031
:020000040000fa
:04012400a80200002d
:020000040000fa
:04012800a802000029
:020000040000fa
:04012c00a802000025
:020000040000fa
:04013000a802000021
:020000040000fa
:04013400a80200001d
:020000040000fa
:04013800a802000019
:020000040000fa
:04013c00a802000015
:020000040000fa
:04014000a802000011
:020000040000fa
:04014400a80200000d
:020000040000fa
:04014800a802000009
:020000040000fa
:04014c00a802000005
:020000040000fa
:04015000a802000001
:020000040000fa
:04015400a8020000fd
:020000040000fa
:04015800a8020000f9
:020000040000fa
:04015c00a8020000f5
:020000040000fa
:04016000a8020000f1
:020000040000fa
:04016400a8020000ed
:020000040000fa
:04016800a8020000e9
:020000040000fa
:04016c00a8020000e5
:020000040000fa
:04017000a8020000e1
:020000040000fa
:04017400a8020000dd
:020000040000fa
:04017800a8020000d9
:020000040000fa
:04017c00a8020000d5
:020000040000fa
:04018000a8020000d1
:020000040000fa
:04018400a8020000cd
:020000040000fa
:04018800a8020000c9
:020000040000fa
:04018c00a8020000c5
:020000040000fa
:04019000a8020000c1
:020000040000fa
:04019400a8020000bd
:020000040000fa
:04019800a8020000b9
:020000040000fa
:04019c00a8020000b5
:020000040000fa
:0401a000a8020000b1
:020000040000fa
:0401a400a8020000ad
:020000040000fa
:0401a800a8020000a9
:020000040000fa
:0401ac00a8020000a5
:020000040000fa
:04020800a802000048
:020000040000fa
:04020c00a802000044
:020000040000fa
:04021000a802000040
:020000040000fa
:04021400a80200003c
:020000040000fa
:04021800a802000038
:020000040000fa
:04021c00a802000034
:020000040000fa
:04022000a802000030
:020000040000fa
:04022400a80200002c
:020000040000fa
:04022800a802000028
:020000040000fa
:04022c00a802000024
:020000040000fa
:04023000a802000020
:020000040000fa
:04023400a80200001c
:020000040000fa
:04023800a802000018
:020000040000fa
:04023c00a802000014
:020000040000fa
:04024000a802000010
:020000040000fa
:04024400a80200000c
:020000040000fa
:04024800a802000008
:020000040000fa
:04024c00a802000004
:020000040000fa
:04025000a802000000
:020000040000fa
:04025400a8020000fc
:020000040000fa
:04025800a8020000f8
:020000040000fa
:04025c00a8020000f4
:020000040000fa
:04026000a8020000f0
:020000040000fa
:04026400a8020000ec
:020000040000fa
:04026800a8020000e8
:020000040000fa
:04026c00a8020000e4
:020000040000fa
:04027000a8020000e0
:020000040000fa
:04027400a8020000dc
:020000040000fa
:04027800a8020000d8
:020000040000fa
:04027c00a8020000d4
:020000040000fa
:04028000a8020000d0
:020000040000fa
:04028400a8020000cc
:020000040000fa
:04028800a8020000c8
:020000040000fa
:04028c00a8020000c4
:020000040000fa
:04029000a8020000c0
:020000040000fa
:04029400a8020000bc
:020000040000fa
:04029800a8020000b8
:020000040000fa
:04029c00a8020000b4
:020000040000fa
:0402a000a8020000b0
:020000040000fa
:0402a400a8020000ac
:020000040000fa
:0402a800a8020000a8
:020000040000fa
:0402ac00a8020000a4
:020000040000fa
:0402b000a8020000a0
:020000040000fa
:0402b400a80200009c
:020000040000fa
:0402b800a802000098
:020000040000fa
:0402bc00a802000094
:020000040000fa
:0402c000a802000090
:020000040000fa
:0402c400a80200008c
:020000040000fa
:0402c800a802000088
:020000040000fa
:0402cc00a802000084
:020000040000fa
:0402d000a802000080
:020000040000fa
:0402d400a80200007c
:020000040000fa
:0402d800a802000078
:020000040000fa
:0402dc00a802000074
:020000040000fa
:0402e000a802000070
:020000040000fa
:0402e400a80200006c
:020000040000fa
:0402e800a802000068
:020000040000fa
:0402ec00a802000064
:020000040000fa
:0402f000a802000060
:020000040000fa
:0402f400a80200005c
:020000040000fa
:0402f800a802000058
:020000040000fa
:0402fc00a802000054
:020000040000fa
:04030000a80200004f
:020000040000fa
:04030400a80200004b
:020000040000fa
:04030800a802000047
:020000040000fa
:04030c00a802000043
:020000040000fa
:04031000a80200003f
:020000040000fa
:04031400a80200003b
:020000040000fa
:04031800a802000037
:020000040000fa
:04031c00a802000033
:020000040000fa
:04032000a80200002f
:020000040000fa
:04032400a80200002b
:020000040000fa
:04032800a802000027
:020000040000fa
:04032c00a802000023
:020000040000fa
:04033000a80200001f
:020000040000fa
:04033400a80200001b
:020000040000fa
:04033800a802000017
:020000040000fa
:04033c00a802000013
:020000040000fa
:04034000a80200000f
:020000040000fa
:04034400a80200000b
:020000040000fa
:04034800a802000007
:020000040000fa
:04034c00a802000003
:020000040000fa
:04035000a8020000ff
:020000040000fa
:04035400a8020000fb
:020000040000fa
:04035800a8020000f7
:020000040000fa
:04035c00a8020000f3
:020000040000fa
:04036000a8020000ef
:020000040000fa
:04036400a8020000eb
:020000040000fa
:04036800a8020000e7
:020000040000fa
:04036c00a8020000e3
:020000040000fa
:04037000a8020000df
:020000040000fa
:04037400a8020000db
:020000040000fa
:04037800a8020000d7
:020000040000fa
:04037c00a8020000d3
:020000040000fa
:04038000a8020000cf
:020000040000fa
:04038400a8020000cb
:020000040000fa
:04038800a8020000c7
:020000040000fa
:04038c00a8020000c3
:020000040000fa
:04039000a8020000bf
:020000040000fa
:04039400a8020000bb
:020000040000fa
:04039800a8020000b7
:020000040000fa
:04039c00a8020000b3
:020000040000fa
:0403a000a8020000af
:020000040000fa
:0403a400a8020000ab
:020000040000fa
:0403a800a8020000a7
:020000040000fa
:0403ac00a8020000a3
:020000040000fa
:100400004f8020000eff20000e0188000000000039
:10041000000020000000e000020032000001200087
:10042000200288000c00070060dc20000100200092
:1004300011000700000020000000e0000200320070
:100440000000020000000000400c0200000000005c
:100450000040da000000fe004440a9002000200017
:100460000000e0000300320000002000a00188002e
:100470004440a80000000600910188008000780038
:100480000000eb0015003700e280400032a0b4000d
:100490009101ba00e280400032a0b4009102ba009b
:1004a000e280400032a0b4000002eb00472bde00e7
:1004b000f507b200602ce10004003a000059eb009f
:1004c0008301e900fdff3e00040037006128e100e0
:1004d000010032000082eb000b00070011c3ba00dc
:1004e0001101ba000604e00003003a000200e00037
:1004f000e5ff3a0000000600f607b200960188000a
:1005000082007800f5ff37003159ba008301e90015
:100510000c0032002159ba008301e90008003200c2
:100520000400e00003003a00e280400032a0b40082
:10053000f5ff370011d9ba008301e900faff3a004c
:100540008100e800e180400032a0b4000000060015
:100550000040da000000fe0003f0a200889fbe0009
:100560008a9fbe008c1f7800f3000700fa0033005a
:100570006450e1004f0032006420e100520032007c
:1005800003826c0007003b000905d0000306d00081
:10059000820f54000c065d00020039000200320098
:1005a00089017800030678008582550004003d002b
:1005b0000003fd008103fd008502ea008b854200f7
:1005c000840f720002003b0060001000e080180001
:1005d0006011b8000005eb007a28e1000a0039003c
:1005e00006007800c75ddd00f707b2008780750060
:1005f0002d003700828171000a01780061056000da
:100600008180d1000080d3008502e900f9ff3b0022
:10061000060440008784480002003b006004140088
:10062000e0841c000988a300070032008a81710061
:1006300082817100610164008904d1000884d300c3
:100640008b05e800170037000978a30013003a0073
:100650000b00e000130034008b05e900080444009f
:1006600089844c000a4474000978a3000d003a0004
:100670000b00e000070034008b05e900080444008b
:1006800089844c0001003a000b0020000978a30087
:10069000f7ff32000001eb00020037008281710099
:1006a0000a017800690007000cf0a70001f0a00023
:1006b000b20037006420e10002003a00838f6c0032
:1006c000b20033000801be000200be00ab003700dc
:1006d000889fbe008a9fbe008c1f7800960007008e
:1006e0009d00330003866c006450e1002e00320050
:1006f0006420e100330032006150e1002f0032003d
:100700006120e1003100320085855500eb07b00023
:1007100009002000080420000500370008044400f8
:1007200089844c000a0031000603430087834b0094
:100730000001530081815b00f8ff33000203be001b
:100740000800a0000804440089844c00f6ff39002a
:10075000c639dd0083017300010032001300200060
:100760008904d1000884d3000998a3000500320051
:100770000800a7000300a0008904d1000884d3006a
:100780008b05e8008904d1000884d3000001eb0048
:100790000281d2002d00070001f0a1000cf0a7009b
:1007a00001f0a000750037006420e10077003200fe
:1007b0000801be000200be00f7ff37006120e10023
:1007c000720032006000b800f3ff37000000200024
:1007d00001f82700f0ff37000001be0041000700cc
:1007e0000470a70003f0a10003f8a30013003a006f
:1007f0006509b10010003200090035006928e100e8
:100800000200350001002800000005000000400043
:10081000818048008502e900fcff3a0000000600e4
:10082000f88f4200050035008100d1000080d30020
:100830008502e800fcff3a00000006008000eb00a3
:10084000000005006011b8000001370081002000a1
:10085000618055000b003d000b00200061fe2f0061
:100860000100e1001d00340082817100610164001b
:100870008904d1000884d3000000e800faff3a00a0
:10088000710020006100640003007000020060003d
:100890000900320061044400e0844c000988a5008e
:1008a000050032008b05e8006808e10002003a000c
:1008b0008904d1000884d300f20f20000258e1001f
:1008c00005003d00c75ddd00f907b20089807500b5
:1008d00008007800000006000bf827008b00780065
:1008e00000000500c70ade00f107b200f50fb200f4
:1008f00008003200e1cf4200020032000170a00087
:1009000024000500810f700001003200040805007a
:1009100044000500810f700002003a001400050039
:100920008502e9000000400081c04800fcff3b0058
:100930000170a000240005000004be00e9ff0700cc
:100940000003be000405be000200be00e5ff070074
:10095000844f7500000006000200be006450e100f4
:10096000050036006420e100020036000968a3009b
:1009700001003a000800be000160a0004f067800a8
:100980004f05be004f04be0000000600f0ff2f0020
:10099000f1ff2700f9ff3700889fbe008a9fbe0045
:1009a0008c9fbe0097000700850478000005be00fc
:1009b0006420e10049003e006220e10003003200b3
:1009c000090035000bf8a300440032000bf8a30027
:1009d000080032001002200010408800f0ff2f00b5
:1009e000f1ff27003d00370001f82f000000200034
:1009f0003a0037003d000700d7fe07000006be00a2
:100a00000a00be00324f200053f323008a00070083
:100a1000060034000c00be0034000700cefe0700c4
:100a20000006be000a00be00020037008904e9008b
:100a30000c00be002d0007002e0007002b00070051
:100a4000c6fe07000001be000c00be0020ff07002c
:100a50000005be000001be00260007000006be0023
:100a6000a2f32300430d2c00bcfe0700809fbe00b4
:100a70000c00be00d2e32700d3f02b001d000700be
:100a80004f01be0012ff07000006be000a01be00b3
:100a9000180007000a01be00b0fe07000006be00f5
:100aa0006148b900660007000005be003208280052
:100ab000e3952b000f0007000c01be00a7fe070006
:100ac0000006be000a00be000200280013f3230047
:100ad000080007000c01be00a0fe07004f06be0084
:100ae0004f05be004f04be000000060003f02300c7
:100af00002000500889fbe008a9fbe008c1f780000
:100b00008dff070094ff330003866c006450e10002
:100b1000240032006420e100270032006150e1002f
:100b2000220032006120e100210032008b8542006a
:100b3000eb07b1000134b800003ab80008044200e5
:100b400089844a00013ab8000030b800888040002b
:100b500009014a0004003300000040008180480081
:100b6000020149008b05e900c909dd00830170001d
:100b70000100320013002000c814de004814dd001c
:100b80004709de001200b200c808de0008847000c9
:100b90002eff070001f0a1000cf0a70001f0a0005b
:100ba00076ff37006120e10078ff32000801be00c7
:100bb0000200be00f7ff37006150e100fcff3a0081
:100bc00072ff37006022b800060220000000d0004b
:100bd0008180d2000482d2008582d2000000a00071
:100be0000202520083825a000300310002024200d6
:100bf00083824a000000a1000603e900f3ff3a00e7
:100c0000000006000003be0036ff07006220e1007e
:100c1000020032000600be0005000500e507b10035
:100c2000f107b20004f023008480700007f0a700f1
:100c300001f0a00024000500f4ff2f00320037006f
:100c40004f89de00820178004a003700889fbe008d
:100c50008a9fbe000082700004027100048271004d
:100c6000260032000004be000200be006011b80081
:100c70006b092000950220000182cf000a00390094
:100c80000541b1000082cf00070039000541b100e5
:100c90000982cf00040039000541b1000882cf006d
:100ca000010039000541b100054252001200320036
:100cb0000a003b0082817100610164008100d10063
:100cc0000080d3008984d3000884d3008b05e8001a
:100cd0000442e800f7ff3a00070037000804440028
:100ce00089844c0000004800818048008b05e900a1
:100cf0000442e900f9ff3a00d4fe07004f05be00a8
:100d00004f04be0000000600889fbe008a9fbe0000
:100d1000841f780008ff07004f007800110033009f
:100d2000f0ff2f00838f6c0006003b000405650078
:100d30000a00a7000800370009f0a60010002000f4
:100d400008003700820f5400838f5c0003003900d5
:100d50001000200001003e000000200009f0a70064
:100d60000000ea004f05be004f04be000000e00096
:100d700000000600881f7800030478000300e000ec
:100d800007003d0060001000e080180060011900bd
:100d9000e081190002003b0001f02d000300370044
:100da000aaff070008f0a70001f0a0004f04780098
:040db0000000060039
:020000040000fa
:040db4003101000009
:020000040000fa
:100db8000800fa00200798006147980072479800d9
:100dc8000040eb00004f78000040eb00104798000f
:100dd8001f0037001e4090000080fb00ae0090000e
:100de80000804000104078001e4f680080002000fe
:100df80010079800100037001e4078000004e0003b
:100e080007003d001e407800004040008040780008
:100e1800d03684000040780000cf68000300370017
:100e28001e40780000404000004f78001e009000ef
:100e38000000e900100798001e0090000000e00084
:100e4800edff3c001e4090000040e800104798006d
:100e58009e4090006e40900080cf5000ddff39002a
:100e68007e4090009e40780080cf50000200320003
:100e78000080eb00010037000000eb000080fa0062
:100e8800000006000400fa0000c4b300004f780018
:100e98006b0107001e407800004040001047980092
:100ea8001e4090009d0107002110800000042000d2
:100eb800008060000000e000020032000080eb00cb
:100ec8001d00370070ceb300940107002110800088
:100ed80000042000008060000000e00002003200f2
:100ee8000080eb0014003700630107001e40780003
:100ef800004040000040e800104798001e40900065
:100f08008601070021108000000420000080600096
:100f18000000e000020032000080eb00060037000d
:100f2800960107000080fb00100798006501070084
:100f3800480107001e0090000080fa00000006002b
:100f48000400fa0000c4b300004f78003c01070019
:100f58001e40780000404000104798001e40900056
:100f68006e0107002110800000042000008060004e
:100f78000000e000020032000080eb00460037006d
:100f880070ceb30065010700211080000004200026
:100f9800008060000000e000020032000080eb00ea
:100fa8003d003700340107001e4078000040400033
:100fb8000040e800104798001e40900057010700c5
:100fc8002110800000042000008060000000e00084
:100fd800020032000080eb002f003700007c220066
:100fe800910020006501070020479800350107009f
:100ff8002e409000e047b20020479800ae40900095
:1010080010c8b30000c070002047980030c0b3007b
:1010180020479800180107001e4078000040400053
:10102800104798001e4090003c01070021108000e6
:1010380000042000008060000000e0000200320090
:101048000080eb001400370060ceb30033010700c6
:101058002110800000042000008060000000e000f3
:10106800020032000080eb000b0037002e40900099
:101078002a01070021108000000420000080600081
:101088000000e000020032000080eb0002003700a0
:10109800f00007000000eb000080fa0000000600e6
:1010a8000800fa0000c4b300004f7800e40007000d
:1010b8001e40780000404000104798001e409000f5
:1010c8001601070021108000000420000080600045
:1010d8000000e000020032000080eb003900370019
:1010e80030ceb3000d01070021108000000420005d
:1010f800008060000000e000020032000080eb0089
:1011080030003700dc0007001e4078000040400037
:101118000040e800104798001e409000ff000700bc
:101128002110800000042000008060000000e00022
:10113800020032000080eb0022003700007c220011
:10114800910020000d01070060479800d3000700b8
:10115800007c2200910020000801070070479800d9
:10116800ce000700007c2200910020000301070048
:1011780020479800d3000700b60007006600470024
:101188002e41900021c0b30009ff0700e10f400085
:1011980002003a000080eb000a0037006e40900021
:1011a8000080fb004800dd00200798007e4090008a
:1011b8000080fb00ae00900001007000200798003e
:1011c8002e0090000080fa00000006000800fa00d7
:1011d80000c4b300004f7800990007001e40780053
:1011e80000404000104798001e409000cb000700c8
:1011f8002110800000042000008060000000e00052
:10120800020032000080eb003900370050ceb300f6
:10121800c200070021108000000420000080600048
:101228000000e000020032000080eb0030003700d0
:10123800910007001e407800004040000040e80090
:10124800104798001e409000b4000700211080004d
:1012580000042000008060000000e000020032006e
:101268000080eb0022003700007c22009100200063
:10127800c20007006047980088000700007c220031
:1012880091002000bd000700704798008300070008
:10129800007c220091002000b80007002047980039
:1012a800880007006b000700660047002e41900089
:1012b80021c0b300befe0700e10f400002003a0063
:1012c8000080eb000a0037006e4090000080fb00b1
:1012d8004800dd00200798007e4090000080fb0059
:1012e800ae00900001007000200798002e009000ca
:1012f8000080fa00000006000000fa005000070015
:1013080000c4b300850007002110800000042000fd
:10131800008060000000e000020032000080eb0066
:101328000b003700e0cfb3007c00070021108000dd
:1013380000042000008060000000e000020032008d
:101348000080eb0002003700420007000000eb00bd
:101358000080fa00000006000400fa001007980058
:101368001e0090008000eb0034fd070022852b0052
:10137800f3322400ddfd070002002000037824007a
:10138800d1fc070062662600b323240070fc070026
:1013980002002000832c2400d4fd07000cfd070068
:1013a800000f78001e0078000080fa000000060098
:1013b8000400fa00100798001e0090008000eb005f
:1013c8001efd070002002000a32f2400c7fd070010
:1013d8000200200003782400bbfc07000200200064
:1013e800030c24005afc070002002000832c240070
:1013f800befd0700f6fc0700000f78001e0078000d
:101408000080fa00000006000000fa00e304a900ca
:10141800e324a900c922a800c902a800000c2000e2
:101428004010880080022000101088000422ef007d
:10143800f0092000501088000080fa000000060023
:101448000000fa00290007000402a8000080fa0042
:10145800000006000000fa000442a8000000000096
:1014680020108000640060000000e000fcff3a00eb
:101478000080fa00000006000000fa000422a8001c
:101488000000000020108000620060000000e00002
:10149800fcff3a000080fa00000006000000fa0095
:1014a80004a2a9000482a800000000002010800007
:1014b800700060000000e000fcff3a000080fa00c5
:1014c800000006000000fa0004a2a8000482a80098
:1014d8000000000020108000700060000000e000a4
:1014e800fcff3a000080fa00000006000000fa0045
:1014f80000000000201080007f0060000000e00075
:10150800fcff3a0040108000640060000000e0002a
:10151800f8ff3a000080fa00000006000200fa0016
:10152800004f7800f1ff07001e80fb0000108800c4
:101538000000000040108000640060000000e0002f
:10154800fcff3a000080fa00000006000200fa00e2
:101558000462a800000000004010800061006000e4
:101568000000e000fcff320000108000004f78000f
:101578001e4078000080fa00000006000600fa000d
:1015880010079800210798000462a8000000eb00eb
:10159800000f7800060037001e0078000000e80001
:1015a800000f7800000120000100200067010700fb
:1015b80040108000610060000000e00007003a0071
:1015c8001e0078006101b8001e009000ae00900077
:1015d800800f5100818f5900efff39001e007800fd
:1015e8006101b8001e009000ae009000800f51000d
:1015f800818f59000200390000c0eb00020037005b
:1016080000108000004078000080fa00000006000a
:101618000000fa000462a8000080fa00000006003a
:101628000000fa0040108000610060000000e00047
:10163800020032000080eb0001003700001080003b
:101648000080fa00000006000200fa00004f78004f
:10165800114798007aff07001e00fb0000004000b9
:10166800004f78001e407800acff07002110800072
:1016780000042000008060000000e000020032004a
:101688000080eb000a0037001e409000a3ff07000f
:101698002110800000042000008060000000e000ad
:1016a800020032000080eb00010037000000eb0070
:1016b8000080fa00000006000000fa000047200041
:1016c800001a88004223ef0030002100201a880009
:1016d8005023ef0085a0a90095a0a90041e3a80028
:1016e8000080fa00000006000200fa00000f7800ef
:1016f8009e007800411a88004023a80000000000de
:10170800001a8000610060000000e000fcff320069
:10171800001880000080fa00000006000000fa00af
:10172800b0b72f0010278800f0f72f004016880068
:101738000080fa00000006002200fa00889fbe0020
:10174800001798003033290081382400008fbe002c
:1017580000002000010a24002007980031079800a3
:1017680000002d008155240040079800510798007b
:10177800008029009166240060079800710798008e
:1017880000602300c16c2400000f9800110f98001e
:101798000e1090008000eb0028fc070002002000db
:1017a800030a2400d1fc070002002000035824008b
:1017b800c5fb0700200f9800310f98002e099000f4
:1017c800be0990006e009000fe009000c7fc070064
:1017d8000004be002e099000be0990002e00900063
:1017e800be0090005afb07000001be000800be00c2
:1017f800b5fb0700400f9800510f98000e099000a4
:101808009e0990004e089000de089000aefb07008d
:101818005ffc07004e019000de019000aafb070064
:101828000004be001e01be000000200001f82300d5
:10183800a5fb07000001be000800be0045fb07002d
:10184800600f9800710f98006e099000fe099000d3
:101858000000200001f823009bfb0700600f9800a0
:10186800710f98006e089000fe0890004f04be00ab
:101878000080fa00000006000a00fa0029000700ac
:10188800005822000100200033000700a3ff0700d2
:1018980089ff07000000eb00100798000000eb002c
:1018a800000f780009003700900020008eff070025
:1018b8009e009000008040001007980000702700ec
:1018c80011002000a10007001e0fe8001e0078008c
:1018d800ef0f5000f4ff34001e0090004400de00bb
:1018e800100798001e00900093ff0700200798003b
:1018f8003107980002002000832c24002e0090005d
:10190800be00900079fc0700b1fb070000007800da
:1019180040079800680047001100200041000700b8
:10192800dcff37000000fa00203a800000c0a10068
:1019380000d0a10000e0a100203a8800203a8000f1
:101948000080a1000090a10000a0a100203a88001a
:101958000080fa00000006000400fa00008fbe00b4
:101968001e01be004418dd00cc10de0081007000ae
:101978004410dd000001be0000402200410f20009d
:101988008efc0700000078000000e9004011880084
:101998000000280000118800004020001011880075
:1019a8000080fa00000006000200fa00000f78002c
:1019b800000000001111800000202000008060005d
:1019c8000000e000fbff3a001e00780020118800ac
:1019d8001e0078000080fa00000006000000fa00ef
:1019e8000000000010118000610060000000e000ad
:1019f800fcff320030118000004078000080fa00bf
:101a0800000006000400fa00000f78001107980093
:101a18001e0090001e0f40001e0078000080fa0093
:101a2800000006000800fa00200798003107980017
:101a38000000eb00100798001e009000b10a20007b
:101a4800f0ff0700b00a2000d7ff07001e00900033
:101a5800c1032000ebff0700c0032000d2ff0700ee
:101a68001e00900021012000e6ff07002001200051
:101a7800cdff07003e009000000040008000780085
:101a88001e009000dfff07003e00900000004000ad
:101a9800c5ff07000000eb00000f780022003700a8
:101aa8001e00780000004000ae009000008040005a
:101ab80090007800f00f2000808060001e009000e9
:101ac800d0ff07001e00780000004000ae00900024
:101ad800008040001000780080007800f00f20009f
:101ae80000806000b0ff07001e0078000000400082
:101af800ae0090000080400010007800c800de00b2
:101b08001e009000bfff07001e0078000000400084
:101b1800ae00900000804000100078004800de0011
:101b2800a1ff07001e0fe8003e0090009e0078000d
:101b3800808f5000daff35001e0090009aff0700e2
:0c1b48000000eb000080fa000000060026
:020000040000fa
:101b5400f03fb1000180b10006003500ee0309003a
:101b640000000000403fb1000180b100fbff3d00d8
:101b74001000b000203fb0000200350000800900d2
:081b8400000000000000060053
:020000040000fa
:101b8c00000800000200000002000000010000003c
:101b9c00020800000200000000000000d60d8000ca
:020000040000fa
:041bac000000000035
:020000040000fa
:0200000401f009
:04000000ffff0000fe
:020000040000fa
:0200000401f009
:04000800ffff0000f6
:020000040000fa
:0200000401f009
:04000c00f9ff0000f8
:020000040000fa
:0200000401f009
:0400100033ff0000ba
:020000040000fa
:0200000401f009
:040014005fff00008a
:020000040000fa
:0200000401f009
:04001800ffff0000e6
:020000040000fa
:0200000401f009
:04001c00fdff0000e4
:00000001FF
