:020000040000fa
:080000000002040000000000f2
:020000040000fa
:04000800a80200004a
:020000040000fa
:04000c00a802000046
:020000040000fa
:04001000a802000042
:020000040000fa
:04001400a80200003e
:020000040000fa
:04001800a80200003a
:020000040000fa
:04001c00a802000036
:020000040000fa
:04002000a802000032
:020000040000fa
:04002400a80200002e
:020000040000fa
:04002800a80200002a
:020000040000fa
:04002c00a802000026
:020000040000fa
:04003000a802000022
:020000040000fa
:04003400a80200001e
:020000040000fa
:04003800a80200001a
:020000040000fa
:04003c00a802000016
:020000040000fa
:04004000a802000012
:020000040000fa
:04004400a80200000e
:020000040000fa
:04004800a80200000a
:020000040000fa
:04004c00a802000006
:020000040000fa
:04005000a802000002
:020000040000fa
:04005400a8020000fe
:020000040000fa
:04005800a8020000fa
:020000040000fa
:04005c00a8020000f6
:020000040000fa
:04006000a8020000f2
:020000040000fa
:04006400a8020000ee
:020000040000fa
:04006800a8020000ea
:020000040000fa
:04006c00a8020000e6
:020000040000fa
:04007000a8020000e2
:020000040000fa
:04007400a8020000de
:020000040000fa
:04007800a8020000da
:020000040000fa
:04007c00a8020000d6
:020000040000fa
:04008000a8020000d2
:020000040000fa
:04008400a8020000ce
:020000040000fa
:04008800a8020000ca
:020000040000fa
:04008c00a8020000c6
:020000040000fa
:04009000a8020000c2
:020000040000fa
:04009400a8020000be
:020000040000fa
:04009800a8020000ba
:020000040000fa
:04009c00a8020000b6
:020000040000fa
:0400a000a8020000b2
:020000040000fa
:0400a400a8020000ae
:020000040000fa
:0400a800a8020000aa
:020000040000fa
:0400ac00a8020000a6
:020000040000fa
:0400b000a8020000a2
:020000040000fa
:0400b400a80200009e
:020000040000fa
:0400b800a80200009a
:020000040000fa
:0400bc00a802000096
:020000040000fa
:0400c000a802000092
:020000040000fa
:0400c400a80200008e
:020000040000fa
:0400c800a80200008a
:020000040000fa
:0400cc00a802000086
:020000040000fa
:0400d000a802000082
:020000040000fa
:0400d400a80200007e
:020000040000fa
:0400d800a80200007a
:020000040000fa
:0400dc00a802000076
:020000040000fa
:0400e000a802000072
:020000040000fa
:0400e400a80200006e
:020000040000fa
:0400e800a80200006a
:020000040000fa
:0400ec00a802000066
:020000040000fa
:0400f000a802000062
:020000040000fa
:0400f400a80200005e
:020000040000fa
:0400f800a80200005a
:020000040000fa
:0400fc00a802000056
:020000040000fa
:04010000a802000051
:020000040000fa
:04010400a80200004d
:020000040000fa
:04010800a802000049
:020000040000fa
:04010c00a802000045
:020000040000fa
:04011000a802000041
:020000040000fa
:04011400a80200003d
:020000040000fa
:04011800a802000039
:020000040000fa
:04011c00a802000035
:020000040000fa
:04012000a802000031
:020000040000fa
:04012400a80200002d
:020000040000fa
:04012800a802000029
:020000040000fa
:04012c00a802000025
:020000040000fa
:04013000a802000021
:020000040000fa
:04013400a80200001d
:020000040000fa
:04013800a802000019
:020000040000fa
:04013c00a802000015
:020000040000fa
:04014000a802000011
:020000040000fa
:04014400a80200000d
:020000040000fa
:04014800a802000009
:020000040000fa
:04014c00a802000005
:020000040000fa
:04015000a802000001
:020000040000fa
:04015400a8020000fd
:020000040000fa
:04015800a8020000f9
:020000040000fa
:04015c00a8020000f5
:020000040000fa
:04016000a8020000f1
:020000040000fa
:04016400a8020000ed
:020000040000fa
:04016800a8020000e9
:020000040000fa
:04016c00a8020000e5
:020000040000fa
:04017000a8020000e1
:020000040000fa
:04017400a8020000dd
:020000040000fa
:04017800a8020000d9
:020000040000fa
:04017c00a8020000d5
:020000040000fa
:04018000a8020000d1
:020000040000fa
:04018400a8020000cd
:020000040000fa
:04018800a8020000c9
:020000040000fa
:04018c00a8020000c5
:020000040000fa
:04019000a8020000c1
:020000040000fa
:04019400a8020000bd
:020000040000fa
:04019800a8020000b9
:020000040000fa
:04019c00a8020000b5
:020000040000fa
:0401a000a8020000b1
:020000040000fa
:0401a400a8020000ad
:020000040000fa
:0401a800a8020000a9
:020000040000fa
:0401ac00a8020000a5
:020000040000fa
:04020800a802000048
:020000040000fa
:04020c00a802000044
:020000040000fa
:04021000a802000040
:020000040000fa
:04021400a80200003c
:020000040000fa
:04021800a802000038
:020000040000fa
:04021c00a802000034
:020000040000fa
:04022000a802000030
:020000040000fa
:04022400a80200002c
:020000040000fa
:04022800a802000028
:020000040000fa
:04022c00a802000024
:020000040000fa
:04023000a802000020
:020000040000fa
:04023400a80200001c
:020000040000fa
:04023800a802000018
:020000040000fa
:04023c00a802000014
:020000040000fa
:04024000a802000010
:020000040000fa
:04024400a80200000c
:020000040000fa
:04024800a802000008
:020000040000fa
:04024c00a802000004
:020000040000fa
:04025000a802000000
:020000040000fa
:04025400a8020000fc
:020000040000fa
:04025800a8020000f8
:020000040000fa
:04025c00a8020000f4
:020000040000fa
:04026000a8020000f0
:020000040000fa
:04026400a8020000ec
:020000040000fa
:04026800a8020000e8
:020000040000fa
:04026c00a8020000e4
:020000040000fa
:04027000a8020000e0
:020000040000fa
:04027400a8020000dc
:020000040000fa
:04027800a8020000d8
:020000040000fa
:04027c00a8020000d4
:020000040000fa
:04028000a8020000d0
:020000040000fa
:04028400a8020000cc
:020000040000fa
:04028800a8020000c8
:020000040000fa
:04028c00a8020000c4
:020000040000fa
:04029000a8020000c0
:020000040000fa
:04029400a8020000bc
:020000040000fa
:04029800a8020000b8
:020000040000fa
:04029c00a8020000b4
:020000040000fa
:0402a000a8020000b0
:020000040000fa
:0402a400a8020000ac
:020000040000fa
:0402a800a8020000a8
:020000040000fa
:0402ac00a8020000a4
:020000040000fa
:0402b000a8020000a0
:020000040000fa
:0402b400a80200009c
:020000040000fa
:0402b800a802000098
:020000040000fa
:0402bc00a802000094
:020000040000fa
:0402c000a802000090
:020000040000fa
:0402c400a80200008c
:020000040000fa
:0402c800a802000088
:020000040000fa
:0402cc00a802000084
:020000040000fa
:0402d000a802000080
:020000040000fa
:0402d400a80200007c
:020000040000fa
:0402d800a802000078
:020000040000fa
:0402dc00a802000074
:020000040000fa
:0402e000a802000070
:020000040000fa
:0402e400a80200006c
:020000040000fa
:0402e800a802000068
:020000040000fa
:0402ec00a802000064
:020000040000fa
:0402f000a802000060
:020000040000fa
:0402f400a80200005c
:020000040000fa
:0402f800a802000058
:020000040000fa
:0402fc00a802000054
:020000040000fa
:04030000a80200004f
:020000040000fa
:04030400a80200004b
:020000040000fa
:04030800a802000047
:020000040000fa
:04030c00a802000043
:020000040000fa
:04031000a80200003f
:020000040000fa
:04031400a80200003b
:020000040000fa
:04031800a802000037
:020000040000fa
:04031c00a802000033
:020000040000fa
:04032000a80200002f
:020000040000fa
:04032400a80200002b
:020000040000fa
:04032800a802000027
:020000040000fa
:04032c00a802000023
:020000040000fa
:04033000a80200001f
:020000040000fa
:04033400a80200001b
:020000040000fa
:04033800a802000017
:020000040000fa
:04033c00a802000013
:020000040000fa
:04034000a80200000f
:020000040000fa
:04034400a80200000b
:020000040000fa
:04034800a802000007
:020000040000fa
:04034c00a802000003
:020000040000fa
:04035000a8020000ff
:020000040000fa
:04035400a8020000fb
:020000040000fa
:04035800a8020000f7
:020000040000fa
:04035c00a8020000f3
:020000040000fa
:04036000a8020000ef
:020000040000fa
:04036400a8020000eb
:020000040000fa
:04036800a8020000e7
:020000040000fa
:04036c00a8020000e3
:020000040000fa
:04037000a8020000df
:020000040000fa
:04037400a8020000db
:020000040000fa
:04037800a8020000d7
:020000040000fa
:04037c00a8020000d3
:020000040000fa
:04038000a8020000cf
:020000040000fa
:04038400a8020000cb
:020000040000fa
:04038800a8020000c7
:020000040000fa
:04038c00a8020000c3
:020000040000fa
:04039000a8020000bf
:020000040000fa
:04039400a8020000bb
:020000040000fa
:04039800a8020000b7
:020000040000fa
:04039c00a8020000b3
:020000040000fa
:0403a000a8020000af
:020000040000fa
:0403a400a8020000ab
:020000040000fa
:0403a800a8020000a7
:020000040000fa
:0403ac00a8020000a3
:020000040000fa
:100400004f8020000eff20000e0188000000000039
:10041000000020000000e000020032000001200087
:10042000200288000c0007008066200001002000e8
:1004300011000700000020000000e0000200320070
:1004400000000200000000001c0602000000000086
:100450000040da000000fe004440a9000000200037
:100460000000e0000300320000002000a00188002e
:100470004440a80000000600910188008000780038
:100480000000eb0015003700e280400032a0b4000d
:100490009101ba00e280400032a0b4009102ba009b
:1004a000e280400032a0b4000002eb00472bde00e7
:1004b000f507b200602ce10004003a000059eb009f
:1004c0008301e900fdff3e00040037006128e100e0
:1004d000010032000082eb000b00070011c3ba00dc
:1004e0001101ba000604e00003003a000200e00037
:1004f000e5ff3a0000000600f607b200960188000a
:1005000082007800f5ff37003159ba008301e90015
:100510000c0032002159ba008301e90008003200c2
:100520000400e00003003a00e280400032a0b40082
:10053000f5ff370011d9ba008301e900faff3a004c
:100540008100e800e180400032a0b4000000060015
:100550000040da000000fe000001be001b000700a2
:100560000470a70003f0a10003f8a30013003a00f1
:100570006509b10010003200090035006928e1006a
:1005800002003500010028000000050000004000c6
:10059000818048008502e900fcff3a000000060067
:1005a000f88f4200050035008100d1000080d300a3
:1005b0008502e800fcff3a00000006008000eb0026
:1005c000000005006011b80059003700c70ade00be
:1005d000f107b200f50fb20008003200e1cf42008f
:1005e000020032000170a00024000500810f70009d
:1005f000010032000408050044000500810f70006e
:1006000002003a00140005008502e90000004000e5
:1006100081c04800fcff3b000170a00024000500e1
:10062000889fbe008a9fbe008c1f7800950007003f
:100630009c00330003866c006450e100240032000b
:100640006420e100270032006150e1002200320006
:100650006120e100210032008b854200eb07b100f0
:100660000134b800003ab8000804420089844a0006
:10067000013ab8000030b8008880400009014a0003
:10068000040033000000400081804800020149005e
:100690008b05e900c909dd0083017000010032000b
:1006a00013002000c814de004814dd004709de00f6
:1006b0001200b200c808de00088470004b0007007a
:1006c00001f0a1000cf0a70001f0a0007e003700af
:1006d0006120e100800032000801be000200be007f
:1006e000f7ff37006150e100fcff3a007a00370065
:1006f0006022b800060220000000d0008180d200f5
:100700000482d2008582d2000000a00002025200c2
:1007100083825a00030031000202420083824a00b1
:100720000000a1000603e900f3ff3a000000060004
:10073000889fbe008a9fbe00008270000402710084
:1007400004827100260032000004be000200be00d8
:100750006011b8006b092000950220000182cf00d3
:100760000a0039000541b1000082cf0007003900be
:100770000541b1000982cf00040039000541b100f4
:100780000882cf00010039000541b1000542520046
:10079000120032000a003b00828171006101640096
:1007a0008100d1000080d3008984d3000884d30065
:1007b0008b05e8000442e800f7ff3a000700370025
:1007c0000804440089844c000000480081804800ef
:1007d0008b05e9000442e900f9ff3a000300070035
:1007e0004f05be004f04be0000000600810020003f
:1007f000618055000b003d000b00200061fe2f00c2
:100800000100e1001d00340082817100610164007b
:100810008904d1000884d3000000e800faff3a0000
:10082000710020006100640003007000020060009d
:100830000900320061044400e0844c000988a500ee
:10084000050032008b05e8006808e10002003a006c
:100850008904d1000884d300f20f20000258e1007f
:1008600005003d00c75ddd00f907b2008980750015
:1008700008007800000006000bf827008b007800c5
:10088000000005000004be0050ff07000003be008a
:100890000405be000200be004cff0700844f750037
:1008a000000006000200be006450e10005003600b2
:1008b0006420e100020036000968a30001003a004c
:1008c0000800be000160a0004f0678004f05be0082
:1008d0004f04be0000000600f0ff2f00f1ff2700cc
:0408e000f9ff3700e5
:020000040000fa
:1008e4000000fa00203a800000c0a10000d0a1005e
:1008f40000e0a100203a8800203a80000080a10096
:100904000090a10000a0a100203a88000080fa0015
:10091400000006000400fa00008fbe001e01be00a5
:100924004418dd00cc10de00810070004410dd00ae
:100934000001be0000402200410f20006bff0700b1
:10094400000078000000e900401188000000280041
:100954000011880000402000101188000080fa0077
:10096400000006000200fa00000f780000000000fa
:100974001111800000202000008060000000e000d1
:10098400fbff3a001e007800201188001e0078004a
:100994000080fa00000006000000fa0000000000d9
:1009a40010118000610060000000e000fcff3200d4
:1009b40030118000004078000080fa00000006003a
:1009c4000400fa00000f7800110798001e00900040
:1009d4001e0f40001e0078000080fa000000060090
:1009e4000800fa0020079800310798000000eb0087
:1009f400100798001e009000b10a2000f0ff0700c5
:100a0400b00a2000d7ff07001e009000c103200099
:100a1400ebff0700c0032000d2ff07001e00900078
:100a240021012000e6ff070020012000cdff070080
:100a34003e00900000004000800078001e009000fe
:100a4400dfff07003e00900000004000c5ff0700e4
:100a54000000eb00000f7800220037001e00780031
:100a640000004000ae00900000804000900078003c
:100a7400f00f2000808060001e009000d0ff07006f
:100a84001e00780000004000ae009000008040008e
:100a94001000780080007800f00f200000806000d3
:100aa400b0ff07001e00780000004000ae00900078
:100ab4000080400010007800c800de001e00900096
:100ac400bfff07001e00780000004000ae00900049
:100ad40000804000100078004800de00a1ff0700fd
:100ae4001e0fe8003e0090009e007800808f5000aa
:100af400daff35001e0090009aff07000000eb00ab
:100b04000080fa00000006000000fa000047200000
:100b1400001a88004223ef0030002100201a8800c8
:100b24005023ef0085a0a90095a0a90041e3a800e7
:100b34000080fa00000006000200fa00000f7800ae
:100b44009e007800411a88004023a800000000009d
:100b5400001a8000610060000000e000fcff320029
:100b6400001880000080fa00000006000000fa006f
:100b7400b0f72f0010278800c842a800c8e2a900d7
:100b8400e084a800c082a8000080fa0000000600eb
:100b94001400fa0050079800620798007307980041
:100ba400040f9800150f98005e0090008000eb0081
:100bb400424c20000289b900020178006002b900a9
:100bc4008401780003014100434c20000300b80075
:100bd4000101410082007800008fbe00008fbe003a
:100be4006e009000fe0090003e011000ae811800df
:100bf4000200be000e0990009e099000bbfe070093
:100c040020079800310798002e009000be00900045
:100c14006bfe0700e27a2400531524007ffe0700d0
:100c24004cfe0700400798004e0090000080fa0038
:100c3400000006000200fa0029ff07000058220005
:100c44000100200033ff0700c8ff0700aeff0700c4
:100c540000012000b8ff0700000f780084792b0002
:100c640005002000021b2700b30020001e007800ae
:100c7400c7ff0700104088001100200020802000da
:100c840057ff070000a02600810120000100070093
:040c9400efff370037
:020000040000fa
:100c9800f03fb1000180b10006003500ee03090005
:100ca80000000000403fb1000180b100fbff3d00a3
:100cb8001000b000203fb00002003500008009009d
:080cc80000000000000006001e
:020000040000fa
:100cd0000008000002000000020000000100000007
:100ce00002080000020000000000000078068000fa
:020000040000fa
:040cf0000000000000
:020000040000fa
:0200000401f009
:04000000ffff0000fe
:020000040000fa
:0200000401f009
:04000800ffff0000f6
:020000040000fa
:0200000401f009
:04000c00f9ff0000f8
:020000040000fa
:0200000401f009
:0400100033ff0000ba
:020000040000fa
:0200000401f009
:040014005fff00008a
:020000040000fa
:0200000401f009
:04001800ffff0000e6
:020000040000fa
:0200000401f009
:04001c00fdff0000e4
:00000001FF
