:020000040000fa
:080000000002040000000000f2
:020000040000fa
:04000800a80200004a
:020000040000fa
:04000c00a802000046
:020000040000fa
:04001000a802000042
:020000040000fa
:04001400a80200003e
:020000040000fa
:04001800a80200003a
:020000040000fa
:04001c00a802000036
:020000040000fa
:04002000a802000032
:020000040000fa
:04002400a80200002e
:020000040000fa
:04002800a80200002a
:020000040000fa
:04002c00a802000026
:020000040000fa
:04003000a802000022
:020000040000fa
:04003400a80200001e
:020000040000fa
:04003800a80200001a
:020000040000fa
:04003c00a802000016
:020000040000fa
:04004000a802000012
:020000040000fa
:04004400a80200000e
:020000040000fa
:04004800a80200000a
:020000040000fa
:04004c00a802000006
:020000040000fa
:04005000a802000002
:020000040000fa
:04005400a8020000fe
:020000040000fa
:04005800a8020000fa
:020000040000fa
:04005c00a8020000f6
:020000040000fa
:04006000a8020000f2
:020000040000fa
:04006400a8020000ee
:020000040000fa
:04006800a8020000ea
:020000040000fa
:04006c00a8020000e6
:020000040000fa
:04007000a8020000e2
:020000040000fa
:04007400a8020000de
:020000040000fa
:04007800a8020000da
:020000040000fa
:04007c00a8020000d6
:020000040000fa
:04008000a8020000d2
:020000040000fa
:04008400a8020000ce
:020000040000fa
:04008800a8020000ca
:020000040000fa
:04008c00a8020000c6
:020000040000fa
:04009000a8020000c2
:020000040000fa
:04009400a8020000be
:020000040000fa
:04009800a8020000ba
:020000040000fa
:04009c00a8020000b6
:020000040000fa
:0400a000a8020000b2
:020000040000fa
:0400a400a8020000ae
:020000040000fa
:0400a800a8020000aa
:020000040000fa
:0400ac00a8020000a6
:020000040000fa
:0400b000a8020000a2
:020000040000fa
:0400b400a80200009e
:020000040000fa
:0400b800a80200009a
:020000040000fa
:0400bc00a802000096
:020000040000fa
:0400c000a802000092
:020000040000fa
:0400c400a80200008e
:020000040000fa
:0400c800a80200008a
:020000040000fa
:0400cc00a802000086
:020000040000fa
:0400d000a802000082
:020000040000fa
:0400d400a80200007e
:020000040000fa
:0400d800a80200007a
:020000040000fa
:0400dc00a802000076
:020000040000fa
:0400e000a802000072
:020000040000fa
:0400e400a80200006e
:020000040000fa
:0400e800a80200006a
:020000040000fa
:0400ec00a802000066
:020000040000fa
:0400f000a802000062
:020000040000fa
:0400f400a80200005e
:020000040000fa
:0400f800a80200005a
:020000040000fa
:0400fc00a802000056
:020000040000fa
:04010000a802000051
:020000040000fa
:04010400a80200004d
:020000040000fa
:04010800a802000049
:020000040000fa
:04010c00a802000045
:020000040000fa
:04011000a802000041
:020000040000fa
:04011400a80200003d
:020000040000fa
:04011800a802000039
:020000040000fa
:04011c00a802000035
:020000040000fa
:04012000a802000031
:020000040000fa
:04012400a80200002d
:020000040000fa
:04012800a802000029
:020000040000fa
:04012c00a802000025
:020000040000fa
:04013000a802000021
:020000040000fa
:04013400a80200001d
:020000040000fa
:04013800a802000019
:020000040000fa
:04013c00a802000015
:020000040000fa
:04014000a802000011
:020000040000fa
:04014400a80200000d
:020000040000fa
:04014800a802000009
:020000040000fa
:04014c00a802000005
:020000040000fa
:04015000a802000001
:020000040000fa
:04015400a8020000fd
:020000040000fa
:04015800a8020000f9
:020000040000fa
:04015c00a8020000f5
:020000040000fa
:04016000a8020000f1
:020000040000fa
:04016400a8020000ed
:020000040000fa
:04016800a8020000e9
:020000040000fa
:04016c00a8020000e5
:020000040000fa
:04017000a8020000e1
:020000040000fa
:04017400a8020000dd
:020000040000fa
:04017800a8020000d9
:020000040000fa
:04017c00a8020000d5
:020000040000fa
:04018000a8020000d1
:020000040000fa
:04018400a8020000cd
:020000040000fa
:04018800a8020000c9
:020000040000fa
:04018c00a8020000c5
:020000040000fa
:04019000a8020000c1
:020000040000fa
:04019400a8020000bd
:020000040000fa
:04019800a8020000b9
:020000040000fa
:04019c00a8020000b5
:020000040000fa
:0401a000a8020000b1
:020000040000fa
:0401a400a8020000ad
:020000040000fa
:0401a800a8020000a9
:020000040000fa
:0401ac00a8020000a5
:020000040000fa
:04020800a802000048
:020000040000fa
:04020c00a802000044
:020000040000fa
:04021000a802000040
:020000040000fa
:04021400a80200003c
:020000040000fa
:04021800a802000038
:020000040000fa
:04021c00a802000034
:020000040000fa
:04022000a802000030
:020000040000fa
:04022400a80200002c
:020000040000fa
:04022800a802000028
:020000040000fa
:04022c00a802000024
:020000040000fa
:04023000a802000020
:020000040000fa
:04023400a80200001c
:020000040000fa
:04023800a802000018
:020000040000fa
:04023c00a802000014
:020000040000fa
:04024000a802000010
:020000040000fa
:04024400a80200000c
:020000040000fa
:04024800a802000008
:020000040000fa
:04024c00a802000004
:020000040000fa
:04025000a802000000
:020000040000fa
:04025400a8020000fc
:020000040000fa
:04025800a8020000f8
:020000040000fa
:04025c00a8020000f4
:020000040000fa
:04026000a8020000f0
:020000040000fa
:04026400a8020000ec
:020000040000fa
:04026800a8020000e8
:020000040000fa
:04026c00a8020000e4
:020000040000fa
:04027000a8020000e0
:020000040000fa
:04027400a8020000dc
:020000040000fa
:04027800a8020000d8
:020000040000fa
:04027c00a8020000d4
:020000040000fa
:04028000a8020000d0
:020000040000fa
:04028400a8020000cc
:020000040000fa
:04028800a8020000c8
:020000040000fa
:04028c00a8020000c4
:020000040000fa
:04029000a8020000c0
:020000040000fa
:04029400a8020000bc
:020000040000fa
:04029800a8020000b8
:020000040000fa
:04029c00a8020000b4
:020000040000fa
:0402a000a8020000b0
:020000040000fa
:0402a400a8020000ac
:020000040000fa
:0402a800a8020000a8
:020000040000fa
:0402ac00a8020000a4
:020000040000fa
:0402b000a8020000a0
:020000040000fa
:0402b400a80200009c
:020000040000fa
:0402b800a802000098
:020000040000fa
:0402bc00a802000094
:020000040000fa
:0402c000a802000090
:020000040000fa
:0402c400a80200008c
:020000040000fa
:0402c800a802000088
:020000040000fa
:0402cc00a802000084
:020000040000fa
:0402d000a802000080
:020000040000fa
:0402d400a80200007c
:020000040000fa
:0402d800a802000078
:020000040000fa
:0402dc00a802000074
:020000040000fa
:0402e000a802000070
:020000040000fa
:0402e400a80200006c
:020000040000fa
:0402e800a802000068
:020000040000fa
:0402ec00a802000064
:020000040000fa
:0402f000a802000060
:020000040000fa
:0402f400a80200005c
:020000040000fa
:0402f800a802000058
:020000040000fa
:0402fc00a802000054
:020000040000fa
:04030000a80200004f
:020000040000fa
:04030400a80200004b
:020000040000fa
:04030800a802000047
:020000040000fa
:04030c00a802000043
:020000040000fa
:04031000a80200003f
:020000040000fa
:04031400a80200003b
:020000040000fa
:04031800a802000037
:020000040000fa
:04031c00a802000033
:020000040000fa
:04032000a80200002f
:020000040000fa
:04032400a80200002b
:020000040000fa
:04032800a802000027
:020000040000fa
:04032c00a802000023
:020000040000fa
:04033000a80200001f
:020000040000fa
:04033400a80200001b
:020000040000fa
:04033800a802000017
:020000040000fa
:04033c00a802000013
:020000040000fa
:04034000a80200000f
:020000040000fa
:04034400a80200000b
:020000040000fa
:04034800a802000007
:020000040000fa
:04034c00a802000003
:020000040000fa
:04035000a8020000ff
:020000040000fa
:04035400a8020000fb
:020000040000fa
:04035800a8020000f7
:020000040000fa
:04035c00a8020000f3
:020000040000fa
:04036000a8020000ef
:020000040000fa
:04036400a8020000eb
:020000040000fa
:04036800a8020000e7
:020000040000fa
:04036c00a8020000e3
:020000040000fa
:04037000a8020000df
:020000040000fa
:04037400a8020000db
:020000040000fa
:04037800a8020000d7
:020000040000fa
:04037c00a8020000d3
:020000040000fa
:04038000a8020000cf
:020000040000fa
:04038400a8020000cb
:020000040000fa
:04038800a8020000c7
:020000040000fa
:04038c00a8020000c3
:020000040000fa
:04039000a8020000bf
:020000040000fa
:04039400a8020000bb
:020000040000fa
:04039800a8020000b7
:020000040000fa
:04039c00a8020000b3
:020000040000fa
:0403a000a8020000af
:020000040000fa
:0403a400a8020000ab
:020000040000fa
:0403a800a8020000a7
:020000040000fa
:0403ac00a8020000a3
:020000040000fa
:100400004f8020000eff20000e0188000000000039
:10041000000020000000e000020032000001200087
:10042000200288000c000700e0c22000010020002c
:1004300011000700000020000000e0000200320070
:100440000000020000000000e20b020000000000bb
:100450000040da000000fe004440a9002000200017
:100460000000e0000300320000002000a00188002e
:100470004440a80000000600910188008000780038
:100480000000eb0015003700e280400032a0b4000d
:100490009101ba00e280400032a0b4009102ba009b
:1004a000e280400032a0b4000002eb00472bde00e7
:1004b000f507b200602ce10004003a000059eb009f
:1004c0008301e900fdff3e00040037006128e100e0
:1004d000010032000082eb000b00070011c3ba00dc
:1004e0001101ba000604e00003003a000200e00037
:1004f000e5ff3a0000000600f607b200960188000a
:1005000082007800f5ff37003159ba008301e90015
:100510000c0032002159ba008301e90008003200c2
:100520000400e00003003a00e280400032a0b40082
:10053000f5ff370011d9ba008301e900faff3a004c
:100540008100e800e180400032a0b4000000060015
:100550000040da000000fe0003f0a200889fbe0009
:100560008a9fbe008c1f7800f3000700fa0033005a
:100570006450e1004f0032006420e100520032007c
:1005800003826c0007003b000905d0000306d00081
:10059000820f54000c065d00020039000200320098
:1005a00089017800030678008582550004003d002b
:1005b0000003fd008103fd008502ea008b854200f7
:1005c000840f720002003b0060001000e080180001
:1005d0006011b8000005eb007a28e1000a0039003c
:1005e00006007800c75ddd00f707b2008780750060
:1005f0002d003700828171000a01780061056000da
:100600008180d1000080d3008502e900f9ff3b0022
:10061000060440008784480002003b006004140088
:10062000e0841c000988a300070032008a81710061
:1006300082817100610164008904d1000884d300c3
:100640008b05e800170037000978a30013003a0073
:100650000b00e000130034008b05e900080444009f
:1006600089844c000a4474000978a3000d003a0004
:100670000b00e000070034008b05e900080444008b
:1006800089844c0001003a000b0020000978a30087
:10069000f7ff32000001eb00020037008281710099
:1006a0000a017800690007000cf0a70001f0a00023
:1006b000b20037006420e10002003a00838f6c0032
:1006c000b20033000801be000200be00ab003700dc
:1006d000889fbe008a9fbe008c1f7800960007008e
:1006e0009d00330003866c006450e1002e00320050
:1006f0006420e100330032006150e1002f0032003d
:100700006120e1003100320085855500eb07b00023
:1007100009002000080420000500370008044400f8
:1007200089844c000a0031000603430087834b0094
:100730000001530081815b00f8ff33000203be001b
:100740000800a0000804440089844c00f6ff39002a
:10075000c639dd0083017300010032001300200060
:100760008904d1000884d3000998a3000500320051
:100770000800a7000300a0008904d1000884d3006a
:100780008b05e8008904d1000884d3000001eb0048
:100790000281d2002d00070001f0a1000cf0a7009b
:1007a00001f0a000750037006420e10077003200fe
:1007b0000801be000200be00f7ff37006120e10023
:1007c000720032006000b800f3ff37000000200024
:1007d00001f82700f0ff37000001be0041000700cc
:1007e0000470a70003f0a10003f8a30013003a006f
:1007f0006509b10010003200090035006928e100e8
:100800000200350001002800000005000000400043
:10081000818048008502e900fcff3a0000000600e4
:10082000f88f4200050035008100d1000080d30020
:100830008502e800fcff3a00000006008000eb00a3
:10084000000005006011b80097003700810020000b
:10085000618055000b003d000b00200061fe2f0061
:100860000100e1001d00340082817100610164001b
:100870008904d1000884d3000000e800faff3a00a0
:10088000710020006100640003007000020060003d
:100890000900320061044400e0844c000988a5008e
:1008a000050032008b05e8006808e10002003a000c
:1008b0008904d1000884d300f20f20000258e1001f
:1008c00005003d00c75ddd00f907b20089807500b5
:1008d00008007800000006000bf827008b00780065
:1008e00000000500c70ade00f107b200f50fb200f4
:1008f00008003200e1cf4200020032000170a00087
:1009000024000500810f700001003200040805007a
:1009100044000500810f700002003a001400050039
:100920008502e9000000400081c04800fcff3b0058
:100930000170a000240005000004be00e9ff0700cc
:100940000003be000405be000200be00e5ff070074
:10095000844f7500000006000200be006450e100f4
:10096000050036006420e100020036000968a3009b
:1009700001003a000800be000160a0004f067800a8
:100980004f05be004f04be0000000600f0ff2f0020
:10099000f1ff2700f9ff3700889fbe008a9fbe0045
:1009a0008c1f7800e4ff0700ebff330003866c0028
:1009b0006450e100240032006420e100270032008e
:1009c0006150e100220032006120e100210032008c
:1009d0008b854200eb07b1000134b800003ab80043
:1009e0000804420089844a00013ab8000030b80087
:1009f0008880400009014a000400330000004000e4
:100a000081804800020149008b05e900c909dd0029
:100a1000830170000100320013002000c814de00c2
:100a20004814dd004709de001200b200c808de00ed
:100a30000884700085ff070001f0a1000cf0a700fa
:100a400001f0a000cdff37006120e100cfff3200b0
:100a50000801be000200be00f7ff37006150e10050
:100a6000fcff3a00c9ff37006022b80006022000f0
:100a70000000d0008180d2000482d2008582d200a2
:100a80000000a0000202520083825a0003003100dd
:100a90000202420083824a000000a1000603e9002e
:100aa000f3ff3a0000000600889fbe008a9fbe0048
:100ab000008270000402710004827100260032007e
:100ac0000004be000200be006011b8006b092000e7
:100ad000950220000182cf000a0039000541b100d3
:100ae0000082cf00070039000541b1000982cf0024
:100af000040039000541b1000882cf00010039002f
:100b00000541b10005425200120032000a003b00cc
:100b100082817100610164008100d1000080d300f6
:100b20008984d3000884d3008b05e8000442e800e0
:100b3000f7ff3a00070037000804440089844c009e
:100b400000004800818048008b05e9000442e9006c
:100b5000f9ff3a003dff07004f05be004f04be00fd
:040b6000000006008b
:020000040000fa
:040b6400310100005b
:020000040000fa
:100b68000800fa002007980061479800724798002b
:100b78000040eb00004f78000040eb001047980061
:100b88001f0037001e4090000080fb00ae00900060
:100b980000804000104078001e4f68008000200050
:100ba80010079800100037001e4078000004e0008d
:100bb80007003d001e40780000404000804078005b
:100bc800902d84000040780000cf680003003700b3
:100bd8001e40780000404000004f78001e00900042
:100be8000000e900100798001e0090000000e000d7
:100bf800edff3c001e4090000040e80010479800c0
:100c08009e4090006e40900080cf5000ddff39007c
:100c18007e4090009e40780080cf50000200320055
:100c28000080eb00010037000000eb000080fa00b4
:100c3800000006000400fa0000c4b300004f78006a
:100c48006b0107001e4078000040400010479800e4
:100c58001e4090009d010700211080000004200024
:100c6800008060000000e000020032000080eb001d
:100c78001d00370070ceb3009401070021108000da
:100c880000042000008060000000e0000200320044
:100c98000080eb0014003700630107001e40780055
:100ca800004040000040e800104798001e409000b7
:100cb80086010700211080000004200000806000e9
:100cc8000000e000020032000080eb000600370060
:100cd800960107000080fb001007980065010700d7
:100ce800480107001e0090000080fa00000006007e
:100cf8000400fa0000c4b300004f78003c0107006c
:100d08001e40780000404000104798001e409000a8
:100d18006e010700211080000004200000806000a0
:100d28000000e000020032000080eb0046003700bf
:100d380070ceb30065010700211080000004200078
:100d4800008060000000e000020032000080eb003c
:100d58003d003700340107001e4078000040400085
:100d68000040e800104798001e4090005701070017
:100d78002110800000042000008060000000e000d6
:100d8800020032000080eb002f003700007c2200b8
:100d980091002000650107002047980035010700f1
:100da8002e409000e047b20020479800ae409000e7
:100db80010c8b30000c070002047980030c0b300ce
:100dc80020479800180107001e40780000404000a6
:100dd800104798001e4090003c0107002110800039
:100de80000042000008060000000e00002003200e3
:100df8000080eb001400370060ceb3003301070019
:100e08002110800000042000008060000000e00045
:100e1800020032000080eb000b0037002e409000eb
:100e28002a010700211080000004200000806000d3
:100e38000000e000020032000080eb0002003700f2
:100e4800f00007000000eb000080fa000000060038
:100e58000800fa0000c4b300004f7800e40007005f
:100e68001e40780000404000104798001e40900047
:100e78001601070021108000000420000080600097
:100e88000000e000020032000080eb00390037006b
:100e980030ceb3000d0107002110800000042000af
:100ea800008060000000e000020032000080eb00db
:100eb80030003700dc0007001e407800004040008a
:100ec8000040e800104798001e409000ff0007000f
:100ed8002110800000042000008060000000e00075
:100ee800020032000080eb0022003700007c220064
:100ef800910020000d01070060479800d30007000b
:100f0800007c22009100200008010700704798002b
:100f1800ce000700007c220091002000030107009a
:100f280020479800d3000700b60007006600470076
:100f38002e41900021c0b30009ff0700e10f4000d7
:100f480002003a000080eb000a0037006e40900073
:100f58000080fb004800dd00200798007e409000dc
:100f68000080fb00ae009000010070002007980090
:100f78002e0090000080fa00000006000800fa0029
:100f880000c4b300004f7800990007001e407800a5
:100f980000404000104798001e409000cb0007001a
:100fa8002110800000042000008060000000e000a4
:100fb800020032000080eb003900370050ceb30049
:100fc800c20007002110800000042000008060009b
:100fd8000000e000020032000080eb003000370023
:100fe800910007001e407800004040000040e800e3
:100ff800104798001e409000b400070021108000a0
:1010080000042000008060000000e00002003200c0
:101018000080eb0022003700007c220091002000b5
:10102800c20007006047980088000700007c220083
:1010380091002000bd00070070479800830007005a
:10104800007c220091002000b8000700204798008b
:10105800880007006b000700660047002e419000db
:1010680021c0b300befe0700e10f400002003a00b5
:101078000080eb000a0037006e4090000080fb0003
:101088004800dd00200798007e4090000080fb00ab
:10109800ae00900001007000200798002e0090001c
:1010a8000080fa00000006000000fa005000070067
:1010b80000c4b30085000700211080000004200050
:1010c800008060000000e000020032000080eb00b9
:1010d8000b003700e0cfb3007c0007002110800030
:1010e80000042000008060000000e00002003200e0
:1010f8000080eb0002003700420007000000eb0010
:101108000080fa00000006000400fa0010079800aa
:101118001e0090008000eb00c8fd070022852b0010
:10112800f33224001afe070002002000037824008e
:1011380065fd070062662600b323240004fd07004e
:1011480002002000832c240011fe0700a0fd0700e8
:10115800000f78001e0078000080fa0000000600ea
:101168000400fa00100798001e0090008000eb00b1
:10117800b2fd070002002000a32f240004fe070090
:1011880002002000037824004ffd07000200200021
:10119800030c2400eefc070002002000832c24002e
:1011a800fbfd07008afd0700000f78001e0078008d
:1011b8000080fa00000006000000fa00e304a9001d
:1011c800e324a900c922a800c902a800000c200035
:1011d8004010880080022000101088000422ef00d0
:1011e800f0092000501088000080fa000000060076
:1011f8000000fa00290007000402a8000080fa0095
:10120800000006000000fa000442a80000000000e8
:1012180020108000640060000000e000fcff3a003d
:101228000080fa00000006000000fa000422a8006e
:101238000000000020108000620060000000e00054
:10124800fcff3a000080fa00000006000000fa00e7
:1012580004a2a9000482a800000000002010800059
:10126800700060000000e000fcff3a000080fa0017
:10127800000006000000fa0004a2a8000482a800ea
:101288000000000020108000700060000000e000f6
:10129800fcff3a000080fa00000006000000fa0097
:1012a80000000000201080007f0060000000e000c7
:1012b800fcff3a0040108000640060000000e0007d
:1012c800f8ff3a000080fa00000006000200fa0069
:1012d800004f7800f1ff07001e80fb000010880017
:1012e8000000000040108000640060000000e00082
:1012f800fcff3a000080fa00000006000200fa0035
:101308000462a80000000000401080006100600036
:101318000000e000fcff320000108000004f780061
:101328001e4078000080fa00000006000600fa005f
:1013380010079800210798000462a8000000eb003d
:10134800000f7800060037001e0078000000e80053
:10135800000f780000012000010020002f01070085
:1013680040108000610060000000e00007003a00c3
:101378001e0078006101b8001e009000ae009000c9
:10138800800f5100818f5900efff39001e0078004f
:101398006101b8001e009000ae009000800f51005f
:1013a800818f59000200390000c0eb0002003700ad
:1013b80000108000004078000080fa00000006005d
:1013c8000000fa000462a8000080fa00000006008d
:1013d8000000fa0040108000610060000000e0009a
:1013e800020032000080eb0001003700001080008e
:1013f8000080fa00000006000200fa00004f7800a2
:10140800114798007aff07001e00fb00000040000b
:10141800004f78001e407800acff070021108000c4
:1014280000042000008060000000e000020032009c
:101438000080eb000a0037001e409000a3ff070061
:101448002110800000042000008060000000e000ff
:10145800020032000080eb00010037000000eb00c2
:101468000080fa00000006000000fa00203a800020
:1014780000c0a10000d0a10000e0a100203a88002f
:10148800203a80000080a1000090a10000a0a100e7
:10149800203a88000080fa00000006000400fa00e4
:1014a800008fbe001e01be004418dd00cc10de0017
:1014b800810070004410dd000001be0000402200e1
:1014c800410f200066fd0700000078000000e900d9
:1014d800401188000000280000118800004020000a
:1014e800101188000080fa00000006000200fa00cf
:1014f800000f78000000000011118000002020007b
:10150800008060000000e000fbff3a001e00780049
:10151800201188001e0078000080fa0000000600f4
:101528000000fa0000000000101180006100600057
:101538000000e000fcff320030118000004078001d
:101548000080fa00000006000400fa00000f78008e
:10155800110798001e0090001e0f40001e00780022
:101568000080fa00000006000800fa002007980032
:10157800310798000000eb00100798001e0090004b
:10158800b10a2000f0ff0700b00a2000d7ff0700cb
:101598001e009000c1032000ebff0700c0032000dd
:1015a800d2ff07001e00900021012000e6ff07007f
:1015b80020012000cdff07003e0090000000400001
:1015c800800078001e009000dfff07003e009000ba
:1015d80000004000c5ff07000000eb00000f780086
:1015e800220037001e00780000004000ae00900086
:1015f8000080400090007800f00f2000808060009c
:101608001e009000d0ff07001e0078000000400078
:10161800ae00900000804000100078008000780044
:10162800f00f200000806000b0ff07001e00780067
:1016380000004000ae0090000080400010007800dc
:10164800c800de001e009000bfff07001e007800e3
:1016580000004000ae0090000080400010007800bc
:101668004800de00a1ff07001e0fe8003e009000c2
:101678009e007800808f5000daff35001e00900031
:101688009aff07000000eb000080fa000000060047
:101698000000fa0000472000001a88004223ef00eb
:1016a80030002100201a88005023ef0085a0a900ef
:1016b80095a0a90041e3a8000080fa0000000600f8
:1016c8000200fa00000f78009e007800411a880096
:1016d8004023a80000000000001a8000610060009c
:1016e8000000e000fcff3200001880000080fa00d3
:1016f800000006000000fa00b0f72f00102788004d
:10170800c842a800c8e2a900e084a800c082a800d6
:101718000080fa00000006001400fa005007980044
:101728006207980073079800040f9800150f980037
:101738005e0090008000eb00424c20000289b90056
:10174800020178006002b9008401780003014100b9
:10175800434c20000300b8000101410082007800da
:10176800008fbe00008fbe006e009000fe0090004b
:101778003e011000ae8118000200be000e09900064
:101788009e099000b6fc07002007980031079800d2
:101798002e009000be00900028fc0700e27a24008a
:1017a800531524007afc070009fc0700400798003d
:1017b8004e0090000080fa00000006000200fa00c7
:1017c80029ff0700005822000100200033ff07000e
:1017d800c8ff0700aeff070000012000b8ff0700a0
:1017e800000f780084792b0005002000021b2700d9
:1017f800b30020001e007800c7ff070010408800d3
:10180800110020002080200057ff070000a02600bc
:0c1818008101200001000700efff3700f5
:020000040000fa
:10182400f03fb1000180b10006003500ee0309006d
:1018340000000000403fb1000180b100fbff3d000b
:101844001000b000203fb000020035000080090005
:08185400000000000000060086
:020000040000fa
:10185c00000800000200000002000000010000006f
:10186c000208000002000000000000003e0c800096
:020000040000fa
:04187c000000000068
:020000040000fa
:0200000401f009
:04000000ffff0000fe
:020000040000fa
:0200000401f009
:04000800ffff0000f6
:020000040000fa
:0200000401f009
:04000c00f9ff0000f8
:020000040000fa
:0200000401f009
:0400100033ff0000ba
:020000040000fa
:0200000401f009
:040014005fff00008a
:020000040000fa
:0200000401f009
:04001800ffff0000e6
:020000040000fa
:0200000401f009
:04001c00fdff0000e4
:00000001FF
