:020000040000fa
:080000000002040000000000f2
:020000040000fa
:04000800a80200004a
:020000040000fa
:04000c00a802000046
:020000040000fa
:04001000a802000042
:020000040000fa
:04001400a80200003e
:020000040000fa
:04001800a80200003a
:020000040000fa
:04001c00a802000036
:020000040000fa
:04002000a802000032
:020000040000fa
:04002400a80200002e
:020000040000fa
:04002800a80200002a
:020000040000fa
:04002c00a802000026
:020000040000fa
:04003000a802000022
:020000040000fa
:04003400a80200001e
:020000040000fa
:04003800a80200001a
:020000040000fa
:04003c00a802000016
:020000040000fa
:04004000a802000012
:020000040000fa
:04004400a80200000e
:020000040000fa
:04004800a80200000a
:020000040000fa
:04004c00a802000006
:020000040000fa
:04005000a802000002
:020000040000fa
:04005400a8020000fe
:020000040000fa
:04005800a8020000fa
:020000040000fa
:04005c00a8020000f6
:020000040000fa
:04006000a8020000f2
:020000040000fa
:04006400a8020000ee
:020000040000fa
:04006800a8020000ea
:020000040000fa
:04006c00a8020000e6
:020000040000fa
:04007000a8020000e2
:020000040000fa
:04007400a8020000de
:020000040000fa
:04007800a8020000da
:020000040000fa
:04007c00a8020000d6
:020000040000fa
:04008000a8020000d2
:020000040000fa
:04008400a8020000ce
:020000040000fa
:04008800a8020000ca
:020000040000fa
:04008c00a8020000c6
:020000040000fa
:04009000a8020000c2
:020000040000fa
:04009400a8020000be
:020000040000fa
:04009800a8020000ba
:020000040000fa
:04009c00a8020000b6
:020000040000fa
:0400a000a8020000b2
:020000040000fa
:0400a400a8020000ae
:020000040000fa
:0400a800a8020000aa
:020000040000fa
:0400ac00a8020000a6
:020000040000fa
:0400b000a8020000a2
:020000040000fa
:0400b400a80200009e
:020000040000fa
:0400b800a80200009a
:020000040000fa
:0400bc00a802000096
:020000040000fa
:0400c000a802000092
:020000040000fa
:0400c400a80200008e
:020000040000fa
:0400c800a80200008a
:020000040000fa
:0400cc00a802000086
:020000040000fa
:0400d000a802000082
:020000040000fa
:0400d400a80200007e
:020000040000fa
:0400d800a80200007a
:020000040000fa
:0400dc00a802000076
:020000040000fa
:0400e000a802000072
:020000040000fa
:0400e400a80200006e
:020000040000fa
:0400e800a80200006a
:020000040000fa
:0400ec00a802000066
:020000040000fa
:0400f000a802000062
:020000040000fa
:0400f400a80200005e
:020000040000fa
:0400f800a80200005a
:020000040000fa
:0400fc00a802000056
:020000040000fa
:04010000a802000051
:020000040000fa
:04010400a80200004d
:020000040000fa
:04010800a802000049
:020000040000fa
:04010c00a802000045
:020000040000fa
:04011000a802000041
:020000040000fa
:04011400a80200003d
:020000040000fa
:04011800a802000039
:020000040000fa
:04011c00a802000035
:020000040000fa
:04012000a802000031
:020000040000fa
:04012400a80200002d
:020000040000fa
:04012800a802000029
:020000040000fa
:04012c00a802000025
:020000040000fa
:04013000a802000021
:020000040000fa
:04013400a80200001d
:020000040000fa
:04013800a802000019
:020000040000fa
:04013c00a802000015
:020000040000fa
:04014000a802000011
:020000040000fa
:04014400a80200000d
:020000040000fa
:04014800a802000009
:020000040000fa
:04014c00a802000005
:020000040000fa
:04015000a802000001
:020000040000fa
:04015400a8020000fd
:020000040000fa
:04015800a8020000f9
:020000040000fa
:04015c00a8020000f5
:020000040000fa
:04016000a8020000f1
:020000040000fa
:04016400a8020000ed
:020000040000fa
:04016800a8020000e9
:020000040000fa
:04016c00a8020000e5
:020000040000fa
:04017000a8020000e1
:020000040000fa
:04017400a8020000dd
:020000040000fa
:04017800a8020000d9
:020000040000fa
:04017c00a8020000d5
:020000040000fa
:04018000a8020000d1
:020000040000fa
:04018400a8020000cd
:020000040000fa
:04018800a8020000c9
:020000040000fa
:04018c00a8020000c5
:020000040000fa
:04019000a8020000c1
:020000040000fa
:04019400a8020000bd
:020000040000fa
:04019800a8020000b9
:020000040000fa
:04019c00a8020000b5
:020000040000fa
:0401a000a8020000b1
:020000040000fa
:0401a400a8020000ad
:020000040000fa
:0401a800a8020000a9
:020000040000fa
:0401ac00a8020000a5
:020000040000fa
:04020800a802000048
:020000040000fa
:04020c00a802000044
:020000040000fa
:04021000a802000040
:020000040000fa
:04021400a80200003c
:020000040000fa
:04021800a802000038
:020000040000fa
:04021c00a802000034
:020000040000fa
:04022000a802000030
:020000040000fa
:04022400a80200002c
:020000040000fa
:04022800a802000028
:020000040000fa
:04022c00a802000024
:020000040000fa
:04023000a802000020
:020000040000fa
:04023400a80200001c
:020000040000fa
:04023800a802000018
:020000040000fa
:04023c00a802000014
:020000040000fa
:04024000a802000010
:020000040000fa
:04024400a80200000c
:020000040000fa
:04024800a802000008
:020000040000fa
:04024c00a802000004
:020000040000fa
:04025000a802000000
:020000040000fa
:04025400a8020000fc
:020000040000fa
:04025800a8020000f8
:020000040000fa
:04025c00a8020000f4
:020000040000fa
:04026000a8020000f0
:020000040000fa
:04026400a8020000ec
:020000040000fa
:04026800a8020000e8
:020000040000fa
:04026c00a8020000e4
:020000040000fa
:04027000a8020000e0
:020000040000fa
:04027400a8020000dc
:020000040000fa
:04027800a8020000d8
:020000040000fa
:04027c00a8020000d4
:020000040000fa
:04028000a8020000d0
:020000040000fa
:04028400a8020000cc
:020000040000fa
:04028800a8020000c8
:020000040000fa
:04028c00a8020000c4
:020000040000fa
:04029000a8020000c0
:020000040000fa
:04029400a8020000bc
:020000040000fa
:04029800a8020000b8
:020000040000fa
:04029c00a8020000b4
:020000040000fa
:0402a000a8020000b0
:020000040000fa
:0402a400a8020000ac
:020000040000fa
:0402a800a8020000a8
:020000040000fa
:0402ac00a8020000a4
:020000040000fa
:0402b000a8020000a0
:020000040000fa
:0402b400a80200009c
:020000040000fa
:0402b800a802000098
:020000040000fa
:0402bc00a802000094
:020000040000fa
:0402c000a802000090
:020000040000fa
:0402c400a80200008c
:020000040000fa
:0402c800a802000088
:020000040000fa
:0402cc00a802000084
:020000040000fa
:0402d000a802000080
:020000040000fa
:0402d400a80200007c
:020000040000fa
:0402d800a802000078
:020000040000fa
:0402dc00a802000074
:020000040000fa
:0402e000a802000070
:020000040000fa
:0402e400a80200006c
:020000040000fa
:0402e800a802000068
:020000040000fa
:0402ec00a802000064
:020000040000fa
:0402f000a802000060
:020000040000fa
:0402f400a80200005c
:020000040000fa
:0402f800a802000058
:020000040000fa
:0402fc00a802000054
:020000040000fa
:04030000a80200004f
:020000040000fa
:04030400a80200004b
:020000040000fa
:04030800a802000047
:020000040000fa
:04030c00a802000043
:020000040000fa
:04031000a80200003f
:020000040000fa
:04031400a80200003b
:020000040000fa
:04031800a802000037
:020000040000fa
:04031c00a802000033
:020000040000fa
:04032000a80200002f
:020000040000fa
:04032400a80200002b
:020000040000fa
:04032800a802000027
:020000040000fa
:04032c00a802000023
:020000040000fa
:04033000a80200001f
:020000040000fa
:04033400a80200001b
:020000040000fa
:04033800a802000017
:020000040000fa
:04033c00a802000013
:020000040000fa
:04034000a80200000f
:020000040000fa
:04034400a80200000b
:020000040000fa
:04034800a802000007
:020000040000fa
:04034c00a802000003
:020000040000fa
:04035000a8020000ff
:020000040000fa
:04035400a8020000fb
:020000040000fa
:04035800a8020000f7
:020000040000fa
:04035c00a8020000f3
:020000040000fa
:04036000a8020000ef
:020000040000fa
:04036400a8020000eb
:020000040000fa
:04036800a8020000e7
:020000040000fa
:04036c00a8020000e3
:020000040000fa
:04037000a8020000df
:020000040000fa
:04037400a8020000db
:020000040000fa
:04037800a8020000d7
:020000040000fa
:04037c00a8020000d3
:020000040000fa
:04038000a8020000cf
:020000040000fa
:04038400a8020000cb
:020000040000fa
:04038800a8020000c7
:020000040000fa
:04038c00a8020000c3
:020000040000fa
:04039000a8020000bf
:020000040000fa
:04039400a8020000bb
:020000040000fa
:04039800a8020000b7
:020000040000fa
:04039c00a8020000b3
:020000040000fa
:0403a000a8020000af
:020000040000fa
:0403a400a8020000ab
:020000040000fa
:0403a800a8020000a7
:020000040000fa
:0403ac00a8020000a3
:020000040000fa
:100400006f8020000eff20000e0188000000000019
:10041000000020000000e000020032000001200087
:10042000200288000c000700c0822000010020008c
:1004300011000700000020000000e0000200320070
:100440000000020000000000ac06020000000000f6
:100450000040da000000fe004440a9002000200017
:100460000000e0000300320000002000a00188002e
:100470004440a80000000600910188008000780038
:100480000000eb0015003700e280400032a0b4000d
:100490009101ba00e280400032a0b4009102ba009b
:1004a000e280400032a0b4000002eb00472bde00e7
:1004b000f507b200602ce10004003a000059eb009f
:1004c0008301e900fdff3e00040037006128e100e0
:1004d000010032000082eb000b00070011c3ba00dc
:1004e0001101ba000604e00003003a000200e00037
:1004f000e5ff3a0000000600f607b200960188000a
:1005000082007800f5ff37003159ba008301e90015
:100510000c0032002159ba008301e90008003200c2
:100520000400e00003003a00e280400032a0b40082
:10053000f5ff370011d9ba008301e900faff3a004c
:100540008100e800e180400032a0b4000000060015
:100550000040da000000fe006022b8000602200021
:100560000000d0008180d2000482d2008582d200b7
:100570000000a0000202520083825a0003003100f2
:100580000202420083824a000000a1000603e90043
:08059000f3ff3a000000060031
:020000040000fa
:04059800310100002d
:020000040000fa
:10059c000000fa00203a800000c0a10000d0a100a9
:1005ac0000e0a100203a8800203a80000080a100e1
:1005bc000090a10000a0a100203a88000080fa0061
:1005cc00000006000400fa00008fbe001e01be00f1
:1005dc004418dd00cc10de00810070004410dd00fa
:1005ec000001be0000402200410f2000d7ff070091
:1005fc00000078000000e90040118800000028008d
:10060c000011880000402000101188000080fa00c2
:10061c00000006000000fa0000000000101180002d
:10062c00610060000000e000fcff3200301180002f
:10063c00004078000080fa00000006000200fa007a
:10064c00000f780000000000111180000020200035
:10065c00008060000000e000fbff3a001e00780004
:10066c00201188001e0078000080fa0000000600af
:10067c000400fa00000f7800110798001e0090008b
:10068c001e0f40001e0078000080fa0000000600db
:10069c000800fa0020079800310798000000eb00d2
:1006ac00100798001e009000b10a2000f0ff070010
:1006bc00b00a2000e1ff07001e009000c1032000db
:1006cc00ebff0700c0032000dcff07001e009000ba
:1006dc0021012000e6ff070020012000d7ff0700c2
:1006ec003e00900000004000800078001e0090004a
:1006fc00dfff07003e00900000004000cfff070026
:10070c000000eb00000f7800220037001e0078007c
:10071c0000004000ae009000008040009000780087
:10072c00f00f2000808060001e009000d0ff0700ba
:10073c001e00780000004000ae00900000804000d9
:10074c001000780080007800f00f2000008060001e
:10075c00baff07001e00780000004000ae009000b9
:10076c000080400010007800c800de001e009000e1
:10077c00bfff07001e00780000004000ae00900094
:10078c0000804000100078004800de00abff07003e
:10079c001e0fe8003e0090009e007800808f5000f5
:1007ac00daff35001e009000a4ff07000000eb00ec
:1007bc000080fa00000006000800fa0020079800ec
:1007cc0061479800724798000040eb00004f78009a
:1007dc000040eb00104798001f0037001e409000af
:1007ec000080fb00ae0090000080400010407800bc
:1007fc001e4f680080002000100798001000370082
:10080c001e4078000004e00007003d001e40780008
:10081c000040400080407800601684000040780062
:10082c0000cf6800030037001e40780000404000f5
:10083c00004f78001e0090000000e900100798009f
:10084c001e0090000000e000edff3c001e409000f8
:10085c000040e800104798009e4090006e409000c9
:10086c0080cf5000ddff39007e4090009e40780024
:10087c0080cf5000020032000080eb0001003700f6
:10088c000000eb000080fa00000006000400fa00f3
:10089c0000c4b300004f7800650107001e407800cb
:1008ac0000404000104798001e4090009701070040
:1008bc002110800000042000008060000000e00097
:1008cc00020032000080eb001d00370070ceb30038
:1008dc008e010700211080000004200000806000c1
:1008ec000000e000020032000080eb001400370032
:1008fc005d0107001e407800004040000040e80009
:10090c00104798001e4090008001070021108000c5
:10091c0000042000008060000000e00002003200b3
:10092c000080eb0006003700840107000080fb000c
:10093c00100798005f010700420107001e0090009d
:10094c000080fa00000006000400fa0000c4b300a6
:10095c00004f7800360107001e4078000040400030
:10096c00104798001e40900068010700211080007d
:10097c0000042000008060000000e0000200320053
:10098c000080eb004700370070ceb3005f0107001a
:10099c002110800000042000008060000000e000b6
:1009ac00020032000080eb003e0037002e010700f1
:1009bc001e407800004040000040e80010479800be
:1009cc001e409000510107002110800000042000ff
:1009dc00008060000000e000020032000080eb00ac
:1009ec0030003700550107002047980031010700ff
:1009fc002e409000e047b20020479800ae40900097
:100a0c0010c8b30000c070002047980030c0b3007d
:100a1c0020479800140107001e4078000040400059
:100a2c00104798001e4090003801070021108000ec
:100a3c0000042000008060000000e0000200320092
:100a4c000080eb001700370060ceb3002f010700c9
:100a5c002110800000042000008060000000e000f5
:100a6c00020032000080eb000e0037002e40900098
:100a7c00260107000064200001002000650107002a
:100a8c002110800000042000008060000000e000c5
:100a9c00020032000080eb0002003700e900070082
:100aac000000eb000080fa00000006000800fa00cd
:100abc0000c4b300004f7800dd0007001e40780032
:100acc0000404000104798001e4090000f010700a6
:100adc002110800000042000008060000000e00075
:100aec00020032000080eb003500370030ceb3003e
:100afc000601070021108000000420000080600027
:100b0c000000e000020032000080eb002c003700f7
:100b1c00d50007001e407800004040000040e8006f
:100b2c00104798001e409000f8000700211080002c
:100b3c0000042000008060000000e0000200320091
:100b4c000080eb001e00370008010700fb000700c7
:100b5c0060479800cd000700f80007007047980028
:100b6c00ca000700f500070020479800d1000700d5
:100b7c00b4000700ae4090006600470001417800c9
:100b8c0021c0b3000cff0700e10f400002003a0047
:100b9c000080eb000a0037006e4090000080fb00e4
:100bac004800dd00200798007e4090000080fb008c
:100bbc00ae00900001007000200798002e009000fd
:100bcc000080fa00000006000800fa0000c4b30020
:100bdc00004f7800960007001e00fb00000040004c
:100bec00104798001e409000c8000700211080009c
:100bfc0000042000008060000000e00002003200d1
:100c0c000080eb003400370050ceb300bf0007006b
:100c1c002110800000042000008060000000e00033
:100c2c00020032000080eb002b0037008e00070022
:100c3c001e407800004040000040e800104798003b
:100c4c001e409000b100070021108000000420001d
:100c5c00008060000000e000020032000080eb0029
:100c6c001d003700b500070060479800870007009b
:100c7c00b20007007047980084000700af0007001f
:100c8c00204798008b0007006e000700ae409000d4
:100c9c00660047000141780021c0b300c6fe070082
:100cac00e10f400002003a000080eb000a00370020
:100cbc006e4090000080fb004800dd00200798008b
:100ccc007e4090000080fb00ae00900001007000a0
:100cdc00200798002e0090000080fa00000006000b
:100cec000000fa005200070000c4b30087000700a0
:100cfc002110800000042000008060000000e00053
:100d0c00020032000080eb000e003700e0cfb30091
:100d1c007e0007002110800000042000008060008d
:100d2c000000e000020032000080eb0005003700fc
:100d3c004400070000982a0031002000b50007008d
:100d4c00000037000080fa00000006000400fa00e2
:100d5c00e224ef000efe07000058220001002000e4
:100d6c0018fe07002600070000a0260081012000c5
:100d7c00a8000700daff07000000eb00000f780066
:100d8c000000eb00100798008fff07000040880060
:100d9c0000402200410f20009e00070043ff070087
:100dac001040880000408000e10f400003003a0032
:100dbc001e007800004088000200370000408000d0
:100dcc00000f780010408000e10f400003003a0053
:100ddc001e00900010408800020037001040800078
:100dec0010079800210020000080200028fe07003a
:100dfc0000402200410f200086000700e2ff370070
:100e0c000000fa00c922a800c902a800000c2000aa
:100e1c004010880080022000101088000422ef008f
:100e2c00f0092000501088000080fa000000060035
:100e3c000000fa00290007000402a8000080fa0054
:100e4c00000006000000fa000442a80000000000a8
:100e5c0020108000640060000000e000fcff3a00fd
:100e6c000080fa00000006000000fa000422a8002e
:100e7c000000000020108000620060000000e00014
:100e8c00fcff3a000080fa00000006000000fa00a7
:100e9c0004a2a9000482a800000000002010800019
:100eac00700060000000e000fcff3a000080fa00d7
:100ebc00000006000000fa0004a2a8000482a800aa
:100ecc000000000020108000700060000000e000b6
:100edc00fcff3a000080fa00000006000000fa0057
:100eec0000000000201080007f0060000000e00087
:100efc00fcff3a0040108000640060000000e0003d
:100f0c00f8ff3a000080fa00000006000200fa0028
:100f1c00004f7800f1ff07001e80fb0000108800d6
:100f2c000000000040108000640060000000e00041
:100f3c00fcff3a000080fa00000006000200fa00f4
:100f4c000462a800000000004010800061006000f6
:100f5c000000e000fcff320000108000004f780021
:100f6c001e4078000080fa00000006000000fa0025
:100f7c000462a8000080fa00000006000000fa00dd
:100f8c0040108000610060000000e00002003200b0
:100f9c000080eb0001003700001080000080fa0098
:100fac00000006000200fa00004f7800114798007c
:100fbc009fff07001e00fb0000004000004f780060
:100fcc001e407800d1ff0700211080000004200093
:100fdc00008060000000e000020032000080eb00a6
:100fec000a0037001e409000c8ff07002110800047
:100ffc0000042000008060000000e00002003200cd
:10100c000080eb00010037000000eb000080fa00cc
:04101c0000000600ca
:020000040000fa
:10102000f03fb1000180b10006003500ee03090079
:1010300000000000403fb1000180b100fbff3d0017
:101040001000b000203fb000020035000080090011
:08105000000000000000060092
:020000040000fa
:101058000408000002000000020000000100000077
:101068000008000004000000000000003c088000a8
:020000040000fa
:041078000000000074
:020000040000fa
:0200000401f009
:04000000ffff0000fe
:020000040000fa
:0200000401f009
:04000800ffff0000f6
:020000040000fa
:0200000401f009
:04000c00f9ff0000f8
:020000040000fa
:0200000401f009
:0400100033ff0000ba
:020000040000fa
:0200000401f009
:040014005fff00008a
:020000040000fa
:0200000401f009
:04001800ffff0000e6
:020000040000fa
:0200000401f009
:04001c00fdff0000e4
:00000001FF
